{
  "abi": [
    {
      "inputs": [
        {
          "internalType": "bool",
          "name": "_working",
          "type": "bool"
        },
        {
          "internalType": "string",
          "name": "_about",
          "type": "string"
        },
        {
          "internalType": "uint256",
          "name": "_MinValTransaction",
          "type": "uint256"
        }
      ],
      "stateMutability": "nonpayable",
      "type": "constructor"
    },
    {
      "anonymous": false,
      "inputs": [
        {
          "indexed": true,
          "internalType": "address",
          "name": "oldAdmin",
          "type": "address"
        },
        {
          "indexed": true,
          "internalType": "address",
          "name": "newAdmin",
          "type": "address"
        }
      ],
      "name": "AdminSet",
      "type": "event"
    },
    {
      "anonymous": false,
      "inputs": [
        {
          "indexed": true,
          "internalType": "address",
          "name": "buyer",
          "type": "address"
        },
        {
          "indexed": false,
          "internalType": "uint256",
          "name": "amount",
          "type": "uint256"
        },
        {
          "indexed": false,
          "internalType": "string",
          "name": "product",
          "type": "string"
        }
      ],
      "name": "Purchase",
      "type": "event"
    },
    {
      "anonymous": false,
      "inputs": [
        {
          "indexed": false,
          "internalType": "address",
          "name": "oldAssetsReceiver",
          "type": "address"
        },
        {
          "indexed": false,
          "internalType": "address",
          "name": "newAssetsReceiver",
          "type": "address"
        }
      ],
      "name": "changeAssetsReceiver",
      "type": "event"
    },
    {
      "anonymous": false,
      "inputs": [
        {
          "indexed": false,
          "internalType": "bool",
          "name": "OnOff",
          "type": "bool"
        }
      ],
      "name": "powerSwitch",
      "type": "event"
    },
    {
      "inputs": [],
      "name": "AssetsReceiver",
      "outputs": [
        {
          "internalType": "address payable",
          "name": "",
          "type": "address"
        }
      ],
      "stateMutability": "view",
      "type": "function"
    },
    {
      "inputs": [],
      "name": "MinValTransaction",
      "outputs": [
        {
          "internalType": "uint256",
          "name": "",
          "type": "uint256"
        }
      ],
      "stateMutability": "view",
      "type": "function"
    },
    {
      "inputs": [
        {
          "internalType": "uint256",
          "name": "_MinValTransaction",
          "type": "uint256"
        }
      ],
      "name": "SetMinValTransaction",
      "outputs": [],
      "stateMutability": "nonpayable",
      "type": "function"
    },
    {
      "inputs": [],
      "name": "ShowAdmin",
      "outputs": [
        {
          "internalType": "address",
          "name": "",
          "type": "address"
        }
      ],
      "stateMutability": "view",
      "type": "function"
    },
    {
      "inputs": [],
      "name": "ShowMinValTransaction",
      "outputs": [
        {
          "internalType": "uint256",
          "name": "",
          "type": "uint256"
        }
      ],
      "stateMutability": "view",
      "type": "function"
    },
    {
      "inputs": [],
      "name": "about",
      "outputs": [
        {
          "internalType": "string",
          "name": "",
          "type": "string"
        }
      ],
      "stateMutability": "view",
      "type": "function"
    },
    {
      "inputs": [
        {
          "internalType": "string",
          "name": "product",
          "type": "string"
        }
      ],
      "name": "buy",
      "outputs": [],
      "stateMutability": "payable",
      "type": "function"
    },
    {
      "inputs": [
        {
          "internalType": "address",
          "name": "newAdmin",
          "type": "address"
        }
      ],
      "name": "changeAdmin",
      "outputs": [],
      "stateMutability": "nonpayable",
      "type": "function"
    },
    {
      "inputs": [
        {
          "internalType": "address",
          "name": "newAssetsReceiver",
          "type": "address"
        }
      ],
      "name": "changeReceiverAssets",
      "outputs": [],
      "stateMutability": "nonpayable",
      "type": "function"
    },
    {
      "inputs": [],
      "name": "infoAbout",
      "outputs": [
        {
          "internalType": "string",
          "name": "",
          "type": "string"
        }
      ],
      "stateMutability": "view",
      "type": "function"
    },
    {
      "inputs": [
        {
          "internalType": "bool",
          "name": "w",
          "type": "bool"
        }
      ],
      "name": "switchSM",
      "outputs": [],
      "stateMutability": "nonpayable",
      "type": "function"
    },
    {
      "inputs": [],
      "name": "working",
      "outputs": [
        {
          "internalType": "bool",
          "name": "",
          "type": "bool"
        }
      ],
      "stateMutability": "view",
      "type": "function"
    }
  ],
  "bytecode": "608060405234801561001057600080fd5b50604051610c0e380380610c0e83398101604081905261002f916100d1565b600061003b838261024b565b5060018054336001600160a01b031991821681179092556002805460038590556001600160a81b031916600160a01b8715150290921691909117909117908190556040516001600160a01b03909116906000907fbf265e8326285a2747e33e54d5945f7111f2b5edb826eb8c08d4677779b3ff97908290a3505050610309565b634e487b7160e01b600052604160045260246000fd5b6000806000606084860312156100e657600080fd5b835180151581146100f657600080fd5b60208501519093506001600160401b0381111561011257600080fd5b8401601f8101861361012357600080fd5b80516001600160401b0381111561013c5761013c6100bb565b604051601f8201601f19908116603f011681016001600160401b038111828210171561016a5761016a6100bb565b60405281815282820160200188101561018257600080fd5b60005b828110156101a157602081850181015183830182015201610185565b50600091810160200191909152604095909501519396949550929392505050565b600181811c908216806101d657607f821691505b6020821081036101f657634e487b7160e01b600052602260045260246000fd5b50919050565b601f82111561024657806000526020600020601f840160051c810160208510156102235750805b601f840160051c820191505b81811015610243576000815560010161022f565b50505b505050565b81516001600160401b03811115610264576102646100bb565b6102788161027284546101c2565b846101fc565b6020601f8211600181146102ac57600083156102945750848201515b600019600385901b1c1916600184901b178455610243565b600084815260208120601f198516915b828110156102dc57878501518255602094850194600190920191016102bc565b50848210156102fa5786840151600019600387901b60f8161c191681555b50505050600190811b01905550565b6108f6806103186000396000f3fe6080604052600436106100a75760003560e01c8063abd1aaab11610064578063abd1aaab14610176578063d3491f3d14610196578063d772320a146101b6578063ee73cde8146101cb578063f45510cb146101fd578063ffebc7b71461021d57600080fd5b806301e1035e146100ac57806345a4b787146100d7578063492cc769146100fb5780635e1d5482146101105780638f283970146101255780639f08a68c14610145575b600080fd5b3480156100b857600080fd5b506100c161023d565b6040516100ce91906106d1565b60405180910390f35b3480156100e357600080fd5b506100ed60035481565b6040519081526020016100ce565b61010e610109366004610701565b6102cf565b005b34801561011c57600080fd5b506100c1610450565b34801561013157600080fd5b5061010e6101403660046107ba565b6104de565b34801561015157600080fd5b5060025461016690600160a01b900460ff1681565b60405190151581526020016100ce565b34801561018257600080fd5b5061010e6101913660046107ba565b610554565b3480156101a257600080fd5b5061010e6101b13660046107e3565b6105df565b3480156101c257600080fd5b506003546100ed565b3480156101d757600080fd5b506002546001600160a01b03165b6040516001600160a01b0390911681526020016100ce565b34801561020957600080fd5b5061010e6102183660046107fc565b61060e565b34801561022957600080fd5b506001546101e5906001600160a01b031681565b60606000805461024c9061081e565b80601f01602080910402602001604051908101604052809291908181526020018280546102789061081e565b80156102c55780601f1061029a576101008083540402835291602001916102c5565b820191906000526020600020905b8154815290600101906020018083116102a857829003601f168201915b5050505050905090565b600254600160a01b900460ff1615156001146103295760405162461bcd60e51b81526020600482015260146024820152733a3434b99031b7b73a3930b1ba1034b99037b33360611b60448201526064015b60405180910390fd5b8051608414151560011461037f5760405162461bcd60e51b815260206004820152601860248201527f496e76616c696420416464726573732050726f766964656400000000000000006044820152606401610320565b60035434116103d05760405162461bcd60e51b815260206004820181905260248201527f546865207472616e73616374696f6e20686173206e6f2074686576616c75652e6044820152606401610320565b6001546040516001600160a01b03909116903480156108fc02916000818181858888f19350505050158015610409573d6000803e3d6000fd5b50336001600160a01b03167fd3aa7599e4b0c574b10dc23d7bf5acf28f2193861951c1ba95a90f8a68073fa03483604051610445929190610858565b60405180910390a250565b6000805461045d9061081e565b80601f01602080910402602001604051908101604052809291908181526020018280546104899061081e565b80156104d65780601f106104ab576101008083540402835291602001916104d6565b820191906000526020600020905b8154815290600101906020018083116104b957829003601f168201915b505050505081565b6002546001600160a01b031633146105085760405162461bcd60e51b815260040161032090610879565b600280546001600160a01b0319166001600160a01b03831690811790915560405181907fbf265e8326285a2747e33e54d5945f7111f2b5edb826eb8c08d4677779b3ff9790600090a350565b6002546001600160a01b0316331461057e5760405162461bcd60e51b815260040161032090610879565b600180546001600160a01b038381166001600160a01b031983168117909355604080519190921680825260208201939093527fa37ccfaf7e3db621a7541c85a2db2f20a3f8995aeab574a4f216e65489c5ac62910160405180910390a15050565b6002546001600160a01b031633146106095760405162461bcd60e51b815260040161032090610879565b600355565b6002546001600160a01b031633146106385760405162461bcd60e51b815260040161032090610879565b60405181151581527fdd1219fde60f8d5fddf2484167693d713518fc7722d2ab87009ed9b50c7fed139060200160405180910390a160028054911515600160a01b0260ff60a01b19909216919091179055565b6000815180845260005b818110156106b157602081850181015186830182015201610695565b506000602082860101526020601f19601f83011685010191505092915050565b6020815260006106e4602083018461068b565b9392505050565b634e487b7160e01b600052604160045260246000fd5b60006020828403121561071357600080fd5b813567ffffffffffffffff81111561072a57600080fd5b8201601f8101841361073b57600080fd5b803567ffffffffffffffff811115610755576107556106eb565b604051601f8201601f19908116603f0116810167ffffffffffffffff81118282101715610784576107846106eb565b60405281815282820160200186101561079c57600080fd5b81602084016020830137600091810160200191909152949350505050565b6000602082840312156107cc57600080fd5b81356001600160a01b03811681146106e457600080fd5b6000602082840312156107f557600080fd5b5035919050565b60006020828403121561080e57600080fd5b813580151581146106e457600080fd5b600181811c9082168061083257607f821691505b60208210810361085257634e487b7160e01b600052602260045260246000fd5b50919050565b828152604060208201526000610871604083018461068b565b949350505050565b60208082526027908201527f596f7520646f6e277420686176652070726976696c6567657320666f722074686040820152661a5cc818d85b1b60ca1b60608201526080019056fea26469706673582212201ba921cd169869f3cb7bc891e2a9e47aa5f42cae74d7f7dce2af44a89ea1a60564736f6c634300081a0033",
  "bytecodeSha1": "2fa88077f042b45ccccfa2902a55bd534ead0e19",
  "compiler": {
    "evm_version": "istanbul",
    "optimizer": {
      "enabled": true,
      "runs": 200
    },
    "version": "0.8.26+commit.8a97fa7a"
  },
  "contractName": "CryptoDbSSBridge",
  "language": "Solidity",
  "natspec": {
    "kind": "dev",
    "methods": {},
    "version": 1
  },
  "opcodes": "PUSH1 0x80 PUSH1 0x40 MSTORE PUSH1 0x4 CALLDATASIZE LT PUSH2 0xA7 JUMPI PUSH1 0x0 CALLDATALOAD PUSH1 0xE0 SHR DUP1 PUSH4 0xABD1AAAB GT PUSH2 0x64 JUMPI DUP1 PUSH4 0xABD1AAAB EQ PUSH2 0x176 JUMPI DUP1 PUSH4 0xD3491F3D EQ PUSH2 0x196 JUMPI DUP1 PUSH4 0xD772320A EQ PUSH2 0x1B6 JUMPI DUP1 PUSH4 0xEE73CDE8 EQ PUSH2 0x1CB JUMPI DUP1 PUSH4 0xF45510CB EQ PUSH2 0x1FD JUMPI DUP1 PUSH4 0xFFEBC7B7 EQ PUSH2 0x21D JUMPI PUSH1 0x0 DUP1 REVERT JUMPDEST DUP1 PUSH4 0x1E1035E EQ PUSH2 0xAC JUMPI DUP1 PUSH4 0x45A4B787 EQ PUSH2 0xD7 JUMPI DUP1 PUSH4 0x492CC769 EQ PUSH2 0xFB JUMPI DUP1 PUSH4 0x5E1D5482 EQ PUSH2 0x110 JUMPI DUP1 PUSH4 0x8F283970 EQ PUSH2 0x125 JUMPI DUP1 PUSH4 0x9F08A68C EQ PUSH2 0x145 JUMPI JUMPDEST PUSH1 0x0 DUP1 REVERT JUMPDEST CALLVALUE DUP1 ISZERO PUSH2 0xB8 JUMPI PUSH1 0x0 DUP1 REVERT JUMPDEST POP PUSH2 0xC1 PUSH2 0x23D JUMP JUMPDEST PUSH1 0x40 MLOAD PUSH2 0xCE SWAP2 SWAP1 PUSH2 0x6D1 JUMP JUMPDEST PUSH1 0x40 MLOAD DUP1 SWAP2 SUB SWAP1 RETURN JUMPDEST CALLVALUE DUP1 ISZERO PUSH2 0xE3 JUMPI PUSH1 0x0 DUP1 REVERT JUMPDEST POP PUSH2 0xED PUSH1 0x3 SLOAD DUP2 JUMP JUMPDEST PUSH1 0x40 MLOAD SWAP1 DUP2 MSTORE PUSH1 0x20 ADD PUSH2 0xCE JUMP JUMPDEST PUSH2 0x10E PUSH2 0x109 CALLDATASIZE PUSH1 0x4 PUSH2 0x701 JUMP JUMPDEST PUSH2 0x2CF JUMP JUMPDEST STOP JUMPDEST CALLVALUE DUP1 ISZERO PUSH2 0x11C JUMPI PUSH1 0x0 DUP1 REVERT JUMPDEST POP PUSH2 0xC1 PUSH2 0x450 JUMP JUMPDEST CALLVALUE DUP1 ISZERO PUSH2 0x131 JUMPI PUSH1 0x0 DUP1 REVERT JUMPDEST POP PUSH2 0x10E PUSH2 0x140 CALLDATASIZE PUSH1 0x4 PUSH2 0x7BA JUMP JUMPDEST PUSH2 0x4DE JUMP JUMPDEST CALLVALUE DUP1 ISZERO PUSH2 0x151 JUMPI PUSH1 0x0 DUP1 REVERT JUMPDEST POP PUSH1 0x2 SLOAD PUSH2 0x166 SWAP1 PUSH1 0x1 PUSH1 0xA0 SHL SWAP1 DIV PUSH1 0xFF AND DUP2 JUMP JUMPDEST PUSH1 0x40 MLOAD SWAP1 ISZERO ISZERO DUP2 MSTORE PUSH1 0x20 ADD PUSH2 0xCE JUMP JUMPDEST CALLVALUE DUP1 ISZERO PUSH2 0x182 JUMPI PUSH1 0x0 DUP1 REVERT JUMPDEST POP PUSH2 0x10E PUSH2 0x191 CALLDATASIZE PUSH1 0x4 PUSH2 0x7BA JUMP JUMPDEST PUSH2 0x554 JUMP JUMPDEST CALLVALUE DUP1 ISZERO PUSH2 0x1A2 JUMPI PUSH1 0x0 DUP1 REVERT JUMPDEST POP PUSH2 0x10E PUSH2 0x1B1 CALLDATASIZE PUSH1 0x4 PUSH2 0x7E3 JUMP JUMPDEST PUSH2 0x5DF JUMP JUMPDEST CALLVALUE DUP1 ISZERO PUSH2 0x1C2 JUMPI PUSH1 0x0 DUP1 REVERT JUMPDEST POP PUSH1 0x3 SLOAD PUSH2 0xED JUMP JUMPDEST CALLVALUE DUP1 ISZERO PUSH2 0x1D7 JUMPI PUSH1 0x0 DUP1 REVERT JUMPDEST POP PUSH1 0x2 SLOAD PUSH1 0x1 PUSH1 0x1 PUSH1 0xA0 SHL SUB AND JUMPDEST PUSH1 0x40 MLOAD PUSH1 0x1 PUSH1 0x1 PUSH1 0xA0 SHL SUB SWAP1 SWAP2 AND DUP2 MSTORE PUSH1 0x20 ADD PUSH2 0xCE JUMP JUMPDEST CALLVALUE DUP1 ISZERO PUSH2 0x209 JUMPI PUSH1 0x0 DUP1 REVERT JUMPDEST POP PUSH2 0x10E PUSH2 0x218 CALLDATASIZE PUSH1 0x4 PUSH2 0x7FC JUMP JUMPDEST PUSH2 0x60E JUMP JUMPDEST CALLVALUE DUP1 ISZERO PUSH2 0x229 JUMPI PUSH1 0x0 DUP1 REVERT JUMPDEST POP PUSH1 0x1 SLOAD PUSH2 0x1E5 SWAP1 PUSH1 0x1 PUSH1 0x1 PUSH1 0xA0 SHL SUB AND DUP2 JUMP JUMPDEST PUSH1 0x60 PUSH1 0x0 DUP1 SLOAD PUSH2 0x24C SWAP1 PUSH2 0x81E JUMP JUMPDEST DUP1 PUSH1 0x1F ADD PUSH1 0x20 DUP1 SWAP2 DIV MUL PUSH1 0x20 ADD PUSH1 0x40 MLOAD SWAP1 DUP2 ADD PUSH1 0x40 MSTORE DUP1 SWAP3 SWAP2 SWAP1 DUP2 DUP2 MSTORE PUSH1 0x20 ADD DUP3 DUP1 SLOAD PUSH2 0x278 SWAP1 PUSH2 0x81E JUMP JUMPDEST DUP1 ISZERO PUSH2 0x2C5 JUMPI DUP1 PUSH1 0x1F LT PUSH2 0x29A JUMPI PUSH2 0x100 DUP1 DUP4 SLOAD DIV MUL DUP4 MSTORE SWAP2 PUSH1 0x20 ADD SWAP2 PUSH2 0x2C5 JUMP JUMPDEST DUP3 ADD SWAP2 SWAP1 PUSH1 0x0 MSTORE PUSH1 0x20 PUSH1 0x0 KECCAK256 SWAP1 JUMPDEST DUP2 SLOAD DUP2 MSTORE SWAP1 PUSH1 0x1 ADD SWAP1 PUSH1 0x20 ADD DUP1 DUP4 GT PUSH2 0x2A8 JUMPI DUP3 SWAP1 SUB PUSH1 0x1F AND DUP3 ADD SWAP2 JUMPDEST POP POP POP POP POP SWAP1 POP SWAP1 JUMP JUMPDEST PUSH1 0x2 SLOAD PUSH1 0x1 PUSH1 0xA0 SHL SWAP1 DIV PUSH1 0xFF AND ISZERO ISZERO PUSH1 0x1 EQ PUSH2 0x329 JUMPI PUSH1 0x40 MLOAD PUSH3 0x461BCD PUSH1 0xE5 SHL DUP2 MSTORE PUSH1 0x20 PUSH1 0x4 DUP3 ADD MSTORE PUSH1 0x14 PUSH1 0x24 DUP3 ADD MSTORE PUSH20 0x3A3434B99031B7B73A3930B1BA1034B99037B333 PUSH1 0x61 SHL PUSH1 0x44 DUP3 ADD MSTORE PUSH1 0x64 ADD JUMPDEST PUSH1 0x40 MLOAD DUP1 SWAP2 SUB SWAP1 REVERT JUMPDEST DUP1 MLOAD PUSH1 0x84 EQ ISZERO ISZERO PUSH1 0x1 EQ PUSH2 0x37F JUMPI PUSH1 0x40 MLOAD PUSH3 0x461BCD PUSH1 0xE5 SHL DUP2 MSTORE PUSH1 0x20 PUSH1 0x4 DUP3 ADD MSTORE PUSH1 0x18 PUSH1 0x24 DUP3 ADD MSTORE PUSH32 0x496E76616C696420416464726573732050726F76696465640000000000000000 PUSH1 0x44 DUP3 ADD MSTORE PUSH1 0x64 ADD PUSH2 0x320 JUMP JUMPDEST PUSH1 0x3 SLOAD CALLVALUE GT PUSH2 0x3D0 JUMPI PUSH1 0x40 MLOAD PUSH3 0x461BCD PUSH1 0xE5 SHL DUP2 MSTORE PUSH1 0x20 PUSH1 0x4 DUP3 ADD DUP2 SWAP1 MSTORE PUSH1 0x24 DUP3 ADD MSTORE PUSH32 0x546865207472616E73616374696F6E20686173206E6F2074686576616C75652E PUSH1 0x44 DUP3 ADD MSTORE PUSH1 0x64 ADD PUSH2 0x320 JUMP JUMPDEST PUSH1 0x1 SLOAD PUSH1 0x40 MLOAD PUSH1 0x1 PUSH1 0x1 PUSH1 0xA0 SHL SUB SWAP1 SWAP2 AND SWAP1 CALLVALUE DUP1 ISZERO PUSH2 0x8FC MUL SWAP2 PUSH1 0x0 DUP2 DUP2 DUP2 DUP6 DUP9 DUP9 CALL SWAP4 POP POP POP POP ISZERO DUP1 ISZERO PUSH2 0x409 JUMPI RETURNDATASIZE PUSH1 0x0 DUP1 RETURNDATACOPY RETURNDATASIZE PUSH1 0x0 REVERT JUMPDEST POP CALLER PUSH1 0x1 PUSH1 0x1 PUSH1 0xA0 SHL SUB AND PUSH32 0xD3AA7599E4B0C574B10DC23D7BF5ACF28F2193861951C1BA95A90F8A68073FA0 CALLVALUE DUP4 PUSH1 0x40 MLOAD PUSH2 0x445 SWAP3 SWAP2 SWAP1 PUSH2 0x858 JUMP JUMPDEST PUSH1 0x40 MLOAD DUP1 SWAP2 SUB SWAP1 LOG2 POP JUMP JUMPDEST PUSH1 0x0 DUP1 SLOAD PUSH2 0x45D SWAP1 PUSH2 0x81E JUMP JUMPDEST DUP1 PUSH1 0x1F ADD PUSH1 0x20 DUP1 SWAP2 DIV MUL PUSH1 0x20 ADD PUSH1 0x40 MLOAD SWAP1 DUP2 ADD PUSH1 0x40 MSTORE DUP1 SWAP3 SWAP2 SWAP1 DUP2 DUP2 MSTORE PUSH1 0x20 ADD DUP3 DUP1 SLOAD PUSH2 0x489 SWAP1 PUSH2 0x81E JUMP JUMPDEST DUP1 ISZERO PUSH2 0x4D6 JUMPI DUP1 PUSH1 0x1F LT PUSH2 0x4AB JUMPI PUSH2 0x100 DUP1 DUP4 SLOAD DIV MUL DUP4 MSTORE SWAP2 PUSH1 0x20 ADD SWAP2 PUSH2 0x4D6 JUMP JUMPDEST DUP3 ADD SWAP2 SWAP1 PUSH1 0x0 MSTORE PUSH1 0x20 PUSH1 0x0 KECCAK256 SWAP1 JUMPDEST DUP2 SLOAD DUP2 MSTORE SWAP1 PUSH1 0x1 ADD SWAP1 PUSH1 0x20 ADD DUP1 DUP4 GT PUSH2 0x4B9 JUMPI DUP3 SWAP1 SUB PUSH1 0x1F AND DUP3 ADD SWAP2 JUMPDEST POP POP POP POP POP DUP2 JUMP JUMPDEST PUSH1 0x2 SLOAD PUSH1 0x1 PUSH1 0x1 PUSH1 0xA0 SHL SUB AND CALLER EQ PUSH2 0x508 JUMPI PUSH1 0x40 MLOAD PUSH3 0x461BCD PUSH1 0xE5 SHL DUP2 MSTORE PUSH1 0x4 ADD PUSH2 0x320 SWAP1 PUSH2 0x879 JUMP JUMPDEST PUSH1 0x2 DUP1 SLOAD PUSH1 0x1 PUSH1 0x1 PUSH1 0xA0 SHL SUB NOT AND PUSH1 0x1 PUSH1 0x1 PUSH1 0xA0 SHL SUB DUP4 AND SWAP1 DUP2 OR SWAP1 SWAP2 SSTORE PUSH1 0x40 MLOAD DUP2 SWAP1 PUSH32 0xBF265E8326285A2747E33E54D5945F7111F2B5EDB826EB8C08D4677779B3FF97 SWAP1 PUSH1 0x0 SWAP1 LOG3 POP JUMP JUMPDEST PUSH1 0x2 SLOAD PUSH1 0x1 PUSH1 0x1 PUSH1 0xA0 SHL SUB AND CALLER EQ PUSH2 0x57E JUMPI PUSH1 0x40 MLOAD PUSH3 0x461BCD PUSH1 0xE5 SHL DUP2 MSTORE PUSH1 0x4 ADD PUSH2 0x320 SWAP1 PUSH2 0x879 JUMP JUMPDEST PUSH1 0x1 DUP1 SLOAD PUSH1 0x1 PUSH1 0x1 PUSH1 0xA0 SHL SUB DUP4 DUP2 AND PUSH1 0x1 PUSH1 0x1 PUSH1 0xA0 SHL SUB NOT DUP4 AND DUP2 OR SWAP1 SWAP4 SSTORE PUSH1 0x40 DUP1 MLOAD SWAP2 SWAP1 SWAP3 AND DUP1 DUP3 MSTORE PUSH1 0x20 DUP3 ADD SWAP4 SWAP1 SWAP4 MSTORE PUSH32 0xA37CCFAF7E3DB621A7541C85A2DB2F20A3F8995AEAB574A4F216E65489C5AC62 SWAP2 ADD PUSH1 0x40 MLOAD DUP1 SWAP2 SUB SWAP1 LOG1 POP POP JUMP JUMPDEST PUSH1 0x2 SLOAD PUSH1 0x1 PUSH1 0x1 PUSH1 0xA0 SHL SUB AND CALLER EQ PUSH2 0x609 JUMPI PUSH1 0x40 MLOAD PUSH3 0x461BCD PUSH1 0xE5 SHL DUP2 MSTORE PUSH1 0x4 ADD PUSH2 0x320 SWAP1 PUSH2 0x879 JUMP JUMPDEST PUSH1 0x3 SSTORE JUMP JUMPDEST PUSH1 0x2 SLOAD PUSH1 0x1 PUSH1 0x1 PUSH1 0xA0 SHL SUB AND CALLER EQ PUSH2 0x638 JUMPI PUSH1 0x40 MLOAD PUSH3 0x461BCD PUSH1 0xE5 SHL DUP2 MSTORE PUSH1 0x4 ADD PUSH2 0x320 SWAP1 PUSH2 0x879 JUMP JUMPDEST PUSH1 0x40 MLOAD DUP2 ISZERO ISZERO DUP2 MSTORE PUSH32 0xDD1219FDE60F8D5FDDF2484167693D713518FC7722D2AB87009ED9B50C7FED13 SWAP1 PUSH1 0x20 ADD PUSH1 0x40 MLOAD DUP1 SWAP2 SUB SWAP1 LOG1 PUSH1 0x2 DUP1 SLOAD SWAP2 ISZERO ISZERO PUSH1 0x1 PUSH1 0xA0 SHL MUL PUSH1 0xFF PUSH1 0xA0 SHL NOT SWAP1 SWAP3 AND SWAP2 SWAP1 SWAP2 OR SWAP1 SSTORE JUMP JUMPDEST PUSH1 0x0 DUP2 MLOAD DUP1 DUP5 MSTORE PUSH1 0x0 JUMPDEST DUP2 DUP2 LT ISZERO PUSH2 0x6B1 JUMPI PUSH1 0x20 DUP2 DUP6 ADD DUP2 ADD MLOAD DUP7 DUP4 ADD DUP3 ADD MSTORE ADD PUSH2 0x695 JUMP JUMPDEST POP PUSH1 0x0 PUSH1 0x20 DUP3 DUP7 ADD ADD MSTORE PUSH1 0x20 PUSH1 0x1F NOT PUSH1 0x1F DUP4 ADD AND DUP6 ADD ADD SWAP2 POP POP SWAP3 SWAP2 POP POP JUMP JUMPDEST PUSH1 0x20 DUP2 MSTORE PUSH1 0x0 PUSH2 0x6E4 PUSH1 0x20 DUP4 ADD DUP5 PUSH2 0x68B JUMP JUMPDEST SWAP4 SWAP3 POP POP POP JUMP JUMPDEST PUSH4 0x4E487B71 PUSH1 0xE0 SHL PUSH1 0x0 MSTORE PUSH1 0x41 PUSH1 0x4 MSTORE PUSH1 0x24 PUSH1 0x0 REVERT JUMPDEST PUSH1 0x0 PUSH1 0x20 DUP3 DUP5 SUB SLT ISZERO PUSH2 0x713 JUMPI PUSH1 0x0 DUP1 REVERT JUMPDEST DUP2 CALLDATALOAD PUSH8 0xFFFFFFFFFFFFFFFF DUP2 GT ISZERO PUSH2 0x72A JUMPI PUSH1 0x0 DUP1 REVERT JUMPDEST DUP3 ADD PUSH1 0x1F DUP2 ADD DUP5 SGT PUSH2 0x73B JUMPI PUSH1 0x0 DUP1 REVERT JUMPDEST DUP1 CALLDATALOAD PUSH8 0xFFFFFFFFFFFFFFFF DUP2 GT ISZERO PUSH2 0x755 JUMPI PUSH2 0x755 PUSH2 0x6EB JUMP JUMPDEST PUSH1 0x40 MLOAD PUSH1 0x1F DUP3 ADD PUSH1 0x1F NOT SWAP1 DUP2 AND PUSH1 0x3F ADD AND DUP2 ADD PUSH8 0xFFFFFFFFFFFFFFFF DUP2 GT DUP3 DUP3 LT OR ISZERO PUSH2 0x784 JUMPI PUSH2 0x784 PUSH2 0x6EB JUMP JUMPDEST PUSH1 0x40 MSTORE DUP2 DUP2 MSTORE DUP3 DUP3 ADD PUSH1 0x20 ADD DUP7 LT ISZERO PUSH2 0x79C JUMPI PUSH1 0x0 DUP1 REVERT JUMPDEST DUP2 PUSH1 0x20 DUP5 ADD PUSH1 0x20 DUP4 ADD CALLDATACOPY PUSH1 0x0 SWAP2 DUP2 ADD PUSH1 0x20 ADD SWAP2 SWAP1 SWAP2 MSTORE SWAP5 SWAP4 POP POP POP POP JUMP JUMPDEST PUSH1 0x0 PUSH1 0x20 DUP3 DUP5 SUB SLT ISZERO PUSH2 0x7CC JUMPI PUSH1 0x0 DUP1 REVERT JUMPDEST DUP2 CALLDATALOAD PUSH1 0x1 PUSH1 0x1 PUSH1 0xA0 SHL SUB DUP2 AND DUP2 EQ PUSH2 0x6E4 JUMPI PUSH1 0x0 DUP1 REVERT JUMPDEST PUSH1 0x0 PUSH1 0x20 DUP3 DUP5 SUB SLT ISZERO PUSH2 0x7F5 JUMPI PUSH1 0x0 DUP1 REVERT JUMPDEST POP CALLDATALOAD SWAP2 SWAP1 POP JUMP JUMPDEST PUSH1 0x0 PUSH1 0x20 DUP3 DUP5 SUB SLT ISZERO PUSH2 0x80E JUMPI PUSH1 0x0 DUP1 REVERT JUMPDEST DUP2 CALLDATALOAD DUP1 ISZERO ISZERO DUP2 EQ PUSH2 0x6E4 JUMPI PUSH1 0x0 DUP1 REVERT JUMPDEST PUSH1 0x1 DUP2 DUP2 SHR SWAP1 DUP3 AND DUP1 PUSH2 0x832 JUMPI PUSH1 0x7F DUP3 AND SWAP2 POP JUMPDEST PUSH1 0x20 DUP3 LT DUP2 SUB PUSH2 0x852 JUMPI PUSH4 0x4E487B71 PUSH1 0xE0 SHL PUSH1 0x0 MSTORE PUSH1 0x22 PUSH1 0x4 MSTORE PUSH1 0x24 PUSH1 0x0 REVERT JUMPDEST POP SWAP2 SWAP1 POP JUMP JUMPDEST DUP3 DUP2 MSTORE PUSH1 0x40 PUSH1 0x20 DUP3 ADD MSTORE PUSH1 0x0 PUSH2 0x871 PUSH1 0x40 DUP4 ADD DUP5 PUSH2 0x68B JUMP JUMPDEST SWAP5 SWAP4 POP POP POP POP JUMP JUMPDEST PUSH1 0x20 DUP1 DUP3 MSTORE PUSH1 0x27 SWAP1 DUP3 ADD MSTORE PUSH32 0x596F7520646F6E277420686176652070726976696C6567657320666F72207468 PUSH1 0x40 DUP3 ADD MSTORE PUSH7 0x1A5CC818D85B1B PUSH1 0xCA SHL PUSH1 0x60 DUP3 ADD MSTORE PUSH1 0x80 ADD SWAP1 JUMP INVALID LOG2 PUSH5 0x6970667358 0x22 SLT KECCAK256 SHL 0xA9 0x21 0xCD AND SWAP9 PUSH10 0xF3CB7BC891E2A9E47AA5 DELEGATECALL 0x2C 0xAE PUSH21 0xD7F7DCE2AF44A89EA1A60564736F6C634300081A00 CALLER ",
  "sha1": "a086bc9e5ba1c8effef6c28c7de8e81310e880e2",
  "source": "// SPDX-License-Identifier: MIT\n\npragma solidity ^0.8.0;\n\ncontract CryptoDbSSBridge{\n\n    string public about;\n    address payable public AssetsReceiver;\n    address private Admin;\n    bool public working;\n    uint256 public MinValTransaction;\n    \n    event Purchase (address indexed buyer, uint256 amount, string product);\n    event changeAssetsReceiver (address  oldAssetsReceiver, address  newAssetsReceiver);\n    event powerSwitch (bool OnOff);\n    event AdminSet(address indexed oldAdmin, address indexed newAdmin);\n\n    constructor(bool _working, string memory _about, uint256 _MinValTransaction) {\n        about = _about;\n        AssetsReceiver = payable(msg.sender);\n        working = _working;\n        MinValTransaction = _MinValTransaction;\n        Admin = msg.sender; \n        emit AdminSet(address(0), Admin);\n    }\n\n    function checkStringLength(string memory product) internal returns (bool) {\n        bytes memory productBytes = bytes(product);\n        return productBytes.length == 132;\n    }\n\n    function infoAbout() public view returns (string memory) {\n        return about;\n    }\n\n    function buy(string memory product) external payable Working {\n        require(checkStringLength(product) == true, unicode\"Invalid Address Provided\");\n        require(msg.value > MinValTransaction, unicode\"The transaction has no thevalue.\");\n        AssetsReceiver.transfer(msg.value);\n        emit Purchase(msg.sender, msg.value, product);\n    }\n\n    function changeReceiverAssets(address newAssetsReceiver) public onlyAdmin {\n        address oldAssetsReceiver =AssetsReceiver;\n        AssetsReceiver = payable(newAssetsReceiver);\n        emit changeAssetsReceiver(oldAssetsReceiver, AssetsReceiver);\n    }\n\n    function switchSM(bool w) public onlyAdmin {\n        emit powerSwitch(w);\n        working = w;\n    }\n\n    function changeAdmin(address newAdmin) public onlyAdmin {\n        Admin = newAdmin;\n        emit AdminSet(Admin, newAdmin);\n    }\n\n    function ShowAdmin() external view returns (address) {\n        return Admin;\n    }\n\n    function SetMinValTransaction(uint256 _MinValTransaction) public onlyAdmin {\n        MinValTransaction = _MinValTransaction;\n\n    }\n    function ShowMinValTransaction() external view returns (uint256) {\n        return MinValTransaction;\n    }\n\n    modifier onlyAdmin() {\n        require(msg.sender == Admin, \"You don't have privileges for this call\");\n        _;\n    }\n\n    modifier Working() {\n        require(working == true, \"this contract is off\");\n        _;\n    }\n\n}",
  "sourcePath": "contracts/CryptoDbSSBridge.sol",
  "type": "contract"
}